{
  "contractName": "Greetings",
  "abi": [
    {
      "inputs": [
        {
          "internalType": "uint256",
          "name": "_serviceFee",
          "type": "uint256"
        },
        {
          "internalType": "bool",
          "name": "_enable",
          "type": "bool"
        }
      ],
      "payable": false,
      "stateMutability": "nonpayable",
      "type": "constructor"
    },
    {
      "anonymous": false,
      "inputs": [
        {
          "indexed": true,
          "internalType": "address",
          "name": "_account",
          "type": "address"
        },
        {
          "indexed": false,
          "internalType": "string",
          "name": "_greetings",
          "type": "string"
        }
      ],
      "name": "GreetingsChangedEvent",
      "type": "event"
    },
    {
      "anonymous": false,
      "inputs": [
        {
          "indexed": false,
          "internalType": "uint256",
          "name": "_serviceFee",
          "type": "uint256"
        }
      ],
      "name": "NewServiceFeeEvent",
      "type": "event"
    },
    {
      "constant": true,
      "inputs": [],
      "name": "enable",
      "outputs": [
        {
          "internalType": "bool",
          "name": "",
          "type": "bool"
        }
      ],
      "payable": false,
      "stateMutability": "view",
      "type": "function"
    },
    {
      "constant": true,
      "inputs": [],
      "name": "owner",
      "outputs": [
        {
          "internalType": "address payable",
          "name": "",
          "type": "address"
        }
      ],
      "payable": false,
      "stateMutability": "view",
      "type": "function"
    },
    {
      "constant": false,
      "inputs": [],
      "name": "kill",
      "outputs": [],
      "payable": false,
      "stateMutability": "nonpayable",
      "type": "function"
    },
    {
      "constant": false,
      "inputs": [],
      "name": "enableContract",
      "outputs": [],
      "payable": false,
      "stateMutability": "nonpayable",
      "type": "function"
    },
    {
      "constant": false,
      "inputs": [],
      "name": "disableContract",
      "outputs": [],
      "payable": false,
      "stateMutability": "nonpayable",
      "type": "function"
    },
    {
      "constant": false,
      "inputs": [
        {
          "internalType": "uint256",
          "name": "_serviceFee",
          "type": "uint256"
        }
      ],
      "name": "setServiceFee",
      "outputs": [],
      "payable": false,
      "stateMutability": "nonpayable",
      "type": "function"
    },
    {
      "constant": false,
      "inputs": [],
      "name": "transferEarning",
      "outputs": [],
      "payable": false,
      "stateMutability": "nonpayable",
      "type": "function"
    },
    {
      "constant": false,
      "inputs": [
        {
          "internalType": "string",
          "name": "_message",
          "type": "string"
        }
      ],
      "name": "setGreetings",
      "outputs": [],
      "payable": true,
      "stateMutability": "payable",
      "type": "function"
    },
    {
      "constant": true,
      "inputs": [],
      "name": "getServiceFee",
      "outputs": [
        {
          "internalType": "uint256",
          "name": "",
          "type": "uint256"
        }
      ],
      "payable": false,
      "stateMutability": "view",
      "type": "function"
    },
    {
      "constant": true,
      "inputs": [],
      "name": "getGreetings",
      "outputs": [
        {
          "internalType": "string",
          "name": "",
          "type": "string"
        }
      ],
      "payable": false,
      "stateMutability": "view",
      "type": "function"
    }
  ],
  "bytecode": "0x608060405234801561001057600080fd5b50604051610d7e380380610d7e8339818101604052604081101561003357600080fd5b810190808051906020019092919080519060200190929190505050336000806101000a81548173ffffffffffffffffffffffffffffffffffffffff021916908373ffffffffffffffffffffffffffffffffffffffff1602179055506040518060400160405280601f81526020017f48656c6c6f2066726f6d204465766f7878204d6f726f63636f20323031392100815250600190805190602001906100d9929190610102565b508160028190555080600360006101000a81548160ff02191690831515021790555050506101a7565b828054600181600116156101000203166002900490600052602060002090601f016020900481019282601f1061014357805160ff1916838001178555610171565b82800160010185558215610171579182015b82811115610170578251825591602001919060010190610155565b5b50905061017e9190610182565b5090565b6101a491905b808211156101a0576000816000905550600101610188565b5090565b90565b610bc8806101b66000396000f3fe6080604052600436106100915760003560e01c8063894ba83311610059578063894ba833146101e55780638da5cb5b146101fc5780639637331514610253578063a3907d711461026a578063ca4c3a411461029957610091565b806311a1933c14610096578063367edd32146100c157806341c0e1b5146100d857806349da5de4146100ef5780635cdf76f8146101aa575b600080fd5b3480156100a257600080fd5b506100ab610329565b6040518082815260200191505060405180910390f35b3480156100cd57600080fd5b506100d6610333565b005b3480156100e457600080fd5b506100ed6103f5565b005b6101a86004803603602081101561010557600080fd5b810190808035906020019064010000000081111561012257600080fd5b82018360208201111561013457600080fd5b8035906020019184600183028401116401000000008311171561015657600080fd5b91908080601f016020809104026020016040519081016040528093929190818152602001838380828437600081840152601f19601f8201169050808301925050505050505091929192905050506104b3565b005b3480156101b657600080fd5b506101e3600480360360208110156101cd57600080fd5b81019080803590602001909291905050506106fd565b005b3480156101f157600080fd5b506101fa6107e3565b005b34801561020857600080fd5b506102116108a5565b604051808273ffffffffffffffffffffffffffffffffffffffff1673ffffffffffffffffffffffffffffffffffffffff16815260200191505060405180910390f35b34801561025f57600080fd5b506102686108ca565b005b34801561027657600080fd5b5061027f610a11565b604051808215151515815260200191505060405180910390f35b3480156102a557600080fd5b506102ae610a24565b6040518080602001828103825283818151815260200191508051906020019080838360005b838110156102ee5780820151818401526020810190506102d3565b50505050905090810190601f16801561031b5780820380516001836020036101000a031916815260200191505b509250505060405180910390f35b6000600254905090565b6000809054906101000a900473ffffffffffffffffffffffffffffffffffffffff1673ffffffffffffffffffffffffffffffffffffffff163373ffffffffffffffffffffffffffffffffffffffff16146103d8576040517f08c379a0000000000000000000000000000000000000000000000000000000008152600401808060200182810382526028815260200180610b6c6028913960400191505060405180910390fd5b6001600360006101000a81548160ff021916908315150217905550565b6000809054906101000a900473ffffffffffffffffffffffffffffffffffffffff1673ffffffffffffffffffffffffffffffffffffffff163373ffffffffffffffffffffffffffffffffffffffff161461049a576040517f08c379a0000000000000000000000000000000000000000000000000000000008152600401808060200182810382526028815260200180610b6c6028913960400191505060405180910390fd5b3373ffffffffffffffffffffffffffffffffffffffff16ff5b60011515600360009054906101000a900460ff1615151461053c576040517f08c379a000000000000000000000000000000000000000000000000000000000815260040180806020018281038252601c8152602001807f54686520636f6e7472616374206973206e6f7420656e61626c6564210000000081525060200191505060405180910390fd5b606081905060008151116105b8576040517f08c379a00000000000000000000000000000000000000000000000000000000081526004018080602001828103825260208152602001807f546865206d6573736167652073686f756c64206e6f7420626520656d7074792181525060200191505060405180910390fd5b600254341461062f576040517f08c379a00000000000000000000000000000000000000000000000000000000081526004018080602001828103825260208152602001807f596f7572207365727669636520666565206973206e6f7420636f72726563742181525060200191505060405180910390fd5b8160019080519060200190610645929190610ac6565b503373ffffffffffffffffffffffffffffffffffffffff167f2c27a5cad9d46b5b409eccaef0d320aebf96dbb6f14d2d6a6f206771f565e7ae836040518080602001828103825283818151815260200191508051906020019080838360005b838110156106bf5780820151818401526020810190506106a4565b50505050905090810190601f1680156106ec5780820380516001836020036101000a031916815260200191505b509250505060405180910390a25050565b6000809054906101000a900473ffffffffffffffffffffffffffffffffffffffff1673ffffffffffffffffffffffffffffffffffffffff163373ffffffffffffffffffffffffffffffffffffffff16146107a2576040517f08c379a0000000000000000000000000000000000000000000000000000000008152600401808060200182810382526028815260200180610b6c6028913960400191505060405180910390fd5b806002819055507fb8968c1485b13762f5c243b85dd08169a81cd2e3bd3788d9d86f80bbbb9e5f23816040518082815260200191505060405180910390a150565b6000809054906101000a900473ffffffffffffffffffffffffffffffffffffffff1673ffffffffffffffffffffffffffffffffffffffff163373ffffffffffffffffffffffffffffffffffffffff1614610888576040517f08c379a0000000000000000000000000000000000000000000000000000000008152600401808060200182810382526028815260200180610b6c6028913960400191505060405180910390fd5b6000600360006101000a81548160ff021916908315150217905550565b6000809054906101000a900473ffffffffffffffffffffffffffffffffffffffff1681565b6000809054906101000a900473ffffffffffffffffffffffffffffffffffffffff1673ffffffffffffffffffffffffffffffffffffffff163373ffffffffffffffffffffffffffffffffffffffff161461096f576040517f08c379a0000000000000000000000000000000000000000000000000000000008152600401808060200182810382526028815260200180610b6c6028913960400191505060405180910390fd5b60003073ffffffffffffffffffffffffffffffffffffffff16311115610a0f576000809054906101000a900473ffffffffffffffffffffffffffffffffffffffff1673ffffffffffffffffffffffffffffffffffffffff166108fc3073ffffffffffffffffffffffffffffffffffffffff16319081150290604051600060405180830381858888f19350505050158015610a0d573d6000803e3d6000fd5b505b565b600360009054906101000a900460ff1681565b606060018054600181600116156101000203166002900480601f016020809104026020016040519081016040528092919081815260200182805460018160011615610100020316600290048015610abc5780601f10610a9157610100808354040283529160200191610abc565b820191906000526020600020905b815481529060010190602001808311610a9f57829003601f168201915b5050505050905090565b828054600181600116156101000203166002900490600052602060002090601f016020900481019282601f10610b0757805160ff1916838001178555610b35565b82800160010185558215610b35579182015b82811115610b34578251825591602001919060010190610b19565b5b509050610b429190610b46565b5090565b610b6891905b80821115610b64576000816000905550600101610b4c565b5090565b9056fe596f757220617265206e6f7420746865206f776e6572206f66207468697320636f6e747261637421a265627a7a72315820e068611e68bb9f527e03f50b3c7af74778fe7bccef3eca9e74d77db5ee3cde6164736f6c634300050c0032",
  "source": "pragma solidity >=0.5.0 <0.6.0;\n\nimport \"./Ownable.sol\";\n\ncontract Greetings is Ownable {\n  string message;\n  uint256 serviceFee;\n  bool public enable;\n\n  // Events\n  event GreetingsChangedEvent(address indexed _account, string _greetings);\n  event NewServiceFeeEvent(uint256 _serviceFee);\n\n  // Modifier\n  modifier onlyEnable() {\n    // only if the contract is enabled\n    require(enable == true, \"The contract is not enabled!\");\n    _;\n  }\n\n  constructor(uint256 _serviceFee, bool _enable) public {\n    message = \"Hello from Devoxx Morocco 2019!\";\n    serviceFee = _serviceFee;\n    enable = _enable;\n  }\n\n  // Contract Owner functions\n  function kill() public onlyOwner {\n    selfdestruct(msg.sender);\n  }\n\n  function enableContract() public onlyOwner {\n    enable = true;\n  }\n\n  function disableContract() public onlyOwner {\n    enable = false;\n  }\n\n  function setServiceFee(uint256 _serviceFee) public onlyOwner {\n    serviceFee = _serviceFee;\n\n    emit NewServiceFeeEvent(_serviceFee);\n  }\n\n  function transferEarning() public onlyOwner {\n    // transfer earning if any\n    if (address(this).balance > 0) {\n      owner.transfer(address(this).balance);\n    }\n  }\n\n  // Setter\n  function setGreetings(string memory _message) public payable onlyEnable {\n    bytes memory newMessage = bytes(_message);\n    require(newMessage.length > 0, \"The message should not be empty!\");\n\n    require(msg.value == serviceFee, \"Your service fee is not correct!\");\n\n    message = _message;\n\n    emit GreetingsChangedEvent(msg.sender, _message);\n  }\n\n  // Getters\n  function getServiceFee() public view returns (uint256) {\n    return serviceFee;\n  }\n\n  function getGreetings() public view returns (string memory) {\n    return message;\n  }\n}\n",
  "sourcePath": "/Users/said.eloudrhiri/DevoxxMA2019/Talk/Labs/step8/contracts/Greetings.sol",
  "compiler": {
    "name": "solc",
    "version": "0.5.12+commit.7709ece9.Emscripten.clang"
  },
  "schemaVersion": "3.0.19",
  "updatedAt": "2019-11-17T10:57:41.474Z",
  "networkType": "ethereum",
  "devdoc": {
    "methods": {}
  },
  "userdoc": {
    "methods": {}
  }
}